{
  "contractName": "Document_Search",
  "abi": [
    {
      "constant": true,
      "inputs": [
        {
          "internalType": "uint256",
          "name": "",
          "type": "uint256"
        }
      ],
      "name": "docs",
      "outputs": [
        {
          "internalType": "string",
          "name": "",
          "type": "string"
        }
      ],
      "payable": false,
      "stateMutability": "view",
      "type": "function"
    },
    {
      "constant": true,
      "inputs": [
        {
          "internalType": "uint256",
          "name": "",
          "type": "uint256"
        }
      ],
      "name": "dummy",
      "outputs": [
        {
          "internalType": "string",
          "name": "",
          "type": "string"
        }
      ],
      "payable": false,
      "stateMutability": "view",
      "type": "function"
    },
    {
      "constant": true,
      "inputs": [
        {
          "internalType": "string",
          "name": "docc_name",
          "type": "string"
        }
      ],
      "name": "Key",
      "outputs": [
        {
          "internalType": "string",
          "name": "",
          "type": "string"
        }
      ],
      "payable": false,
      "stateMutability": "view",
      "type": "function"
    },
    {
      "constant": false,
      "inputs": [
        {
          "internalType": "string",
          "name": "doc_name",
          "type": "string"
        },
        {
          "internalType": "string",
          "name": "Key",
          "type": "string"
        },
        {
          "internalType": "string",
          "name": "Salt",
          "type": "string"
        },
        {
          "internalType": "bool[192]",
          "name": "input",
          "type": "bool[192]"
        }
      ],
      "name": "Insert_Dummy",
      "outputs": [],
      "payable": false,
      "stateMutability": "nonpayable",
      "type": "function"
    },
    {
      "constant": false,
      "inputs": [
        {
          "internalType": "string",
          "name": "doc_name",
          "type": "string"
        },
        {
          "internalType": "string",
          "name": "Key",
          "type": "string"
        },
        {
          "internalType": "string",
          "name": "Salt",
          "type": "string"
        },
        {
          "internalType": "bool[192]",
          "name": "input",
          "type": "bool[192]"
        }
      ],
      "name": "Insert",
      "outputs": [],
      "payable": false,
      "stateMutability": "nonpayable",
      "type": "function"
    },
    {
      "constant": true,
      "inputs": [
        {
          "internalType": "uint256[385]",
          "name": "input",
          "type": "uint256[385]"
        },
        {
          "internalType": "uint256[]",
          "name": "dum",
          "type": "uint256[]"
        }
      ],
      "name": "Search_Keyword",
      "outputs": [
        {
          "internalType": "string[]",
          "name": "",
          "type": "string[]"
        }
      ],
      "payable": false,
      "stateMutability": "view",
      "type": "function"
    }
  ],
  "bytecode": "0x6080604052600060045534801561001557600080fd5b50611340806100256000396000f3fe608060405234801561001057600080fd5b50600436106100625760003560e01c80630229f1d91461006757806323389c5a146100905780632623761b146100b05780634f6e0dc6146100c35780636bb54388146100d8578063eca8e93c146100eb575b600080fd5b61007a610075366004610df2565b6100fe565b6040516100879190611193565b60405180910390f35b6100a361009e366004610f2c565b610590565b60405161008791906111a4565b6100a36100be366004610f2c565b610636565b6100d66100d1366004610e83565b61069e565b005b6100a36100e6366004610e46565b6107ae565b6100d66100f9366004610e83565b61088f565b606060008251600202600a01905060608160405190808252806020026020018201604052801561014257816020015b606081526020019060019003908161012d5790505b5090506000805b6001548110801561015a5750600a82105b156103b957600080805b6130008a01518110156101fc5760006001858154811061018057fe5b906000526020600020016040516101979190611187565b908152602001604051809103902060020160c08b8361018181106101b757fe5b6020020151816101c357fe5b0660c081106101ce57fe5b602081049091015460ff601f9092166101000a900416156101f0576001909201915b60019182019101610164565b50600081836064028161020b57fe5b059050605a8113156103ae576001848154811061022457fe5b600091825260209182902001805460408051601f60026000196101006001871615020190941693909304928301859004850281018501909152818152928301828280156102b25780601f10610287576101008083540402835291602001916102b2565b820191906000526020600020905b81548152906001019060200180831161029557829003601f168201915b50505050508686815181106102c357fe5b60200260200101819052506000600185815481106102dd57fe5b906000526020600020016040516102f49190611187565b90815260408051602092819003830181206001908101805460029281161561010002600019011691909104601f810185900485028301850190935282825290929091908301828280156103885780601f1061035d57610100808354040283529160200191610388565b820191906000526020600020905b81548152906001019060200180831161036b57829003601f168201915b505050505086866001018151811061039c57fe5b60200260200101819052508460020194505b505050600101610149565b5060005b8551811080156103cc57508382105b156105835760028682815181106103df57fe5b6020026020010151600281106103f157fe5b01805460408051602060026001851615610100026000190190941693909304601f810184900484028201840190925281815292918301828280156104765780601f1061044b57610100808354040283529160200191610476565b820191906000526020600020905b81548152906001019060200180831161045957829003601f168201915b505050505083838151811061048757fe5b6020026020010181905250600060028783815181106104a257fe5b6020026020010151600281106104b457fe5b016040516104c29190611187565b90815260408051602092819003830181206001908101805460029281161561010002600019011691909104601f810185900485028301850190935282825290929091908301828280156105565780601f1061052b57610100808354040283529160200191610556565b820191906000526020600020905b81548152906001019060200180831161053957829003601f168201915b505050505083836001018151811061056a57fe5b60209081029190910101526002909101906001016103bd565b5090925050505b92915050565b6001818154811061059d57fe5b600091825260209182902001805460408051601f600260001961010060018716150201909416939093049283018590048502810185019091528181529350909183018282801561062e5780601f106106035761010080835404028352916020019161062e565b820191906000526020600020905b81548152906001019060200180831161061157829003601f168201915b505050505081565b6002816002811061064357fe5b018054604080516020601f60026000196101006001881615020190951694909404938401819004810282018101909252828152935083018282801561062e5780601f106106035761010080835404028352916020019161062e565b60006106a985610985565b905080610786576106b8610abf565b8481526020810184905260408082018490525181906000906106db90899061117b565b90815260200160405180910390206000820151816000019080519060200190610705929190610ae5565b50602082810151805161071e9260018501920190610ae5565b50604082015161073490600283019060c0610b63565b505060018054808201808355600092909252885191925061077e917fb10e2d527612073b26eecdfd717e6a320cf44b4afac2b0732d9fcbe2b7fa0cf69091019060208a0190610ae5565b5050506107a7565b60405162461bcd60e51b815260040161079e906111d5565b60405180910390fd5b5050505050565b606060006107bb83610985565b90508060011415610872576000836040516107d6919061117b565b9081526040805160209281900383018120805460026001821615610100026000190190911604601f810185900485028301850190935282825290929091908301828280156108655780601f1061083a57610100808354040283529160200191610865565b820191906000526020600020905b81548152906001019060200180831161084857829003601f168201915b505050505091505061088a565b60405162461bcd60e51b815260040161079e906111b5565b919050565b600061089a85610985565b9050806107865760026004541015610968576108b4610abf565b8481526020810184905260408082018490525181906000906108d790899061117b565b90815260200160405180910390206000820151816000019080519060200190610901929190610ae5565b50602082810151805161091a9260018501920190610ae5565b50604082015161093090600283019060c0610b63565b509050508560026004546002811061094457fe5b019080519060200190610958929190610ae5565b5050600480546001019055610980565b60405162461bcd60e51b815260040161079e906111c5565b6107a7565b600080805b600154811015610a0b57836040516020016109a5919061117b565b60405160208183030381529060405280519060200120600182815481106109c857fe5b906000526020600020016040516020016109e29190611187565b604051602081830303815290604052805190602001201415610a0357600191505b60010161098a565b5082604051602001610a1d919061117b565b60408051808303601f1901815290829052805160209182012091610a449160029101611187565b604051602081830303815290604052805190602001201480610ab1575082604051602001610a72919061117b565b60408051808303601f1901815290829052805160209182012091610a999160039101611187565b60405160208183030381529060405280519060200120145b1561058a5750600192915050565b60405180606001604052806060815260200160608152602001610ae0610bf1565b905290565b828054600181600116156101000203166002900490600052602060002090601f016020900481019282601f10610b2657805160ff1916838001178555610b53565b82800160010185558215610b53579182015b82811115610b53578251825591602001919060010190610b38565b50610b5f929150610c10565b5090565b600683019183908215610be55791602002820160005b83821115610bb657835183826101000a81548160ff0219169083151502179055509260200192600101602081600001049283019260010302610b79565b8015610be35782816101000a81549060ff0219169055600101602081600001049283019260010302610bb6565b505b50610b5f929150610c2d565b60405180611800016040528060c0906020820280388339509192915050565b610c2a91905b80821115610b5f5760008155600101610c16565b90565b610c2a91905b80821115610b5f57805460ff19168155600101610c33565b600082601f830112610c5c57600080fd5b60c0610c6f610c6a8261120c565b6111e5565b91508183856020840282011115610c8557600080fd5b60005b83811015610cb15781610c9b8882610d8d565b8452506020928301929190910190600101610c88565b5050505092915050565b600082601f830112610ccc57600080fd5b610181610cdb610c6a8261120c565b91508183856020840282011115610cf157600080fd5b60005b83811015610cb15781610d078882610de7565b8452506020928301929190910190600101610cf4565b600082601f830112610d2e57600080fd5b8135610d3c610c6a8261122a565b91508181835260208401935060208101905083856020840282011115610d6157600080fd5b60005b83811015610cb15781610d778882610de7565b8452506020928301929190910190600101610d64565b803561058a816112dd565b600082601f830112610da957600080fd5b8135610db7610c6a8261124b565b91508082526020830160208301858383011115610dd357600080fd5b610dde838284611297565b50505092915050565b803561058a816112f4565b6000806130408385031215610e0657600080fd5b6000610e128585610cbb565b92505061302083013567ffffffffffffffff811115610e3057600080fd5b610e3c85828601610d1d565b9150509250929050565b600060208284031215610e5857600080fd5b813567ffffffffffffffff811115610e6f57600080fd5b610e7b84828501610d98565b949350505050565b6000806000806118608587031215610e9a57600080fd5b843567ffffffffffffffff811115610eb157600080fd5b610ebd87828801610d98565b945050602085013567ffffffffffffffff811115610eda57600080fd5b610ee687828801610d98565b935050604085013567ffffffffffffffff811115610f0357600080fd5b610f0f87828801610d98565b9250506060610f2087828801610c4b565b91505092959194509250565b600060208284031215610f3e57600080fd5b6000610e7b8484610de7565b6000610f568383610fcb565b9392505050565b6000610f6882611285565b610f728185611289565b935083602082028501610f8485611273565b8060005b85811015610fbe5784840389528151610fa18582610f4a565b9450610fac83611273565b60209a909a0199925050600101610f88565b5091979650505050505050565b6000610fd682611285565b610fe08185611289565b9350610ff08185602086016112a3565b610ff9816112d3565b9093019392505050565b600061100e82611285565b611018818561088a565b93506110288185602086016112a3565b9290920192915050565b60008154600181166000811461104f5760018114611072576110b1565b607f6002830416611060818761088a565b60ff19841681529550850192506110b1565b60028204611080818761088a565b955061108b85611279565b60005b828110156110aa5781548882015260019091019060200161108e565b5050850192505b505092915050565b60006110c6602383611289565b7f5468697320646f63756d656e74206e616d6520646f6573206e6f74206578697381526274202160e81b602082015260400192915050565b600061110b601e83611289565b7f44756d6d7920646f63756d656e7420616c726561647920657869737420210000815260200192915050565b6000611144602283611289565b7f5468697320646f63756d656e74206e616d6520616c7265616479206578697374815261202160f01b602082015260400192915050565b6000610f568284611003565b6000610f568284611032565b60208082528101610f568184610f5d565b60208082528101610f568184610fcb565b6020808252810161058a816110b9565b6020808252810161058a816110fe565b6020808252810161058a81611137565b60405181810167ffffffffffffffff8111828210171561120457600080fd5b604052919050565b600067ffffffffffffffff82111561122357600080fd5b5060200290565b600067ffffffffffffffff82111561124157600080fd5b5060209081020190565b600067ffffffffffffffff82111561126257600080fd5b506020601f91909101601f19160190565b60200190565b60009081526020902090565b5190565b90815260200190565b151590565b82818337506000910152565b60005b838110156112be5781810151838201526020016112a6565b838111156112cd576000848401525b50505050565b601f01601f191690565b6112e681611292565b81146112f157600080fd5b50565b6112e681610c2a56fea365627a7a72315820058b807a20ee97b0d0f337cacb2611966a8b50d1b2c65853541a21ed190b933d6c6578706572696d656e74616cf564736f6c63430005100040",
  "source": " pragma solidity ^0.5.0;\r\n     pragma experimental ABIEncoderV2;\r\ncontract Document_Search{\r\n    \r\n       mapping(string => Index_details) details;\r\n       string[] public docs;\r\n       string[2] public dummy;\r\n       uint count=0;\r\n       \r\n    struct Index_details{\r\n\r\n     string key;\r\n     string salt;\r\n     bool [192]Bloom;        //SIZE OF BLOOM FILTER IS 192 BYTES\r\n    }\r\n\r\nfunction Key(string memory docc_name)view public returns(string  memory){\r\n        uint i=findd_id(docc_name);\r\n             if(i==1){\r\n                 return details[docc_name].key;\r\n             }\r\n             else{\r\n               revert('This document name does not exist !');  \r\n             }\r\n}\r\n\r\n\r\n function Insert_Dummy(string memory doc_name,string memory Key,string memory Salt,bool [192] memory input) public{\r\n        uint i=findd_id(doc_name);\r\n             if(i==0){\r\n              if(count<2){\r\n              Index_details memory p;\r\n              p.key=Key;\r\n              p.salt=Salt;\r\n              p.Bloom=input;\r\n              details[doc_name]=p;\r\n              //dummy.push(doc_name);\r\n              dummy[count]=doc_name;\r\n              \r\n              count++;\r\n              }\r\n              else{\r\n                    revert('Dummy document already exist !');  \r\n              }\r\n             }\r\n            else{\r\n                   revert('This document name already exist !');  \r\n             }\r\n\r\n         \r\n            \r\n         \r\n    }\r\n    \r\n    function Insert(string memory doc_name,string memory Key,string memory Salt,bool [192] memory input) public{\r\n        uint i=findd_id(doc_name);\r\n              if(i==0){\r\n        \r\n              Index_details memory p;\r\n              p.key=Key;\r\n              p.salt=Salt;\r\n\r\n            p.Bloom=input;\r\n              details[doc_name]=p; \r\n               docs.push(doc_name);    \r\n              }\r\n              else{\r\n                revert('This document name already exist !');  \r\n              }   \r\n         \r\n    }\r\n   \r\n    function Search_Keyword(uint [385] memory input,uint [] memory dum)view public returns(string [] memory){\r\n        uint len=10+2*dum.length;\r\n        string [] memory result=new string[](len);\r\n        uint counter=0;\r\n      for(uint i=0;i<docs.length&&counter<10;i++){\r\n              int numerator=0;\r\n              int denominator=0;\r\n             for(uint j=0;j<input[384];j++)\r\n             {\r\n                 if(details[docs[i]].Bloom[input[j]%192])\r\n                 {\r\n                     numerator++;\r\n                 }\r\n                 denominator++;\r\n             }\r\n             int val=(100*numerator)/denominator;\r\n            if(val>90){\r\n              result[counter]=docs[i];\r\n              result[counter+1]=details[docs[i]].salt;\r\n              counter=counter+2;\r\n            }\r\n              \r\n      }\r\n       for(uint i=0;i<dum.length&&counter<len;i++){\r\n            result[counter]=dummy[dum[i]];\r\n            result[counter+1]=details[dummy[dum[i]]].salt;\r\n            counter=counter+2;\r\n       }\r\n       return result;\r\n         \r\n    }\r\n\r\n  \r\n    \r\n    function findd_id(string memory docname)view internal returns(uint){\r\n             uint k=0;\r\n            for(uint i=0;i<docs.length;i++){\r\n                if(keccak256(abi.encodePacked(docs[i]))== keccak256(abi.encodePacked(docname)))\r\n                {\r\n                     k=1;\r\n                }\r\n            }\r\n            \r\n                if(keccak256(abi.encodePacked(dummy[0]))== keccak256(abi.encodePacked(docname))\r\n                ||keccak256(abi.encodePacked(dummy[1]))== keccak256(abi.encodePacked(docname)))\r\n                {\r\n                     k=1;\r\n                }\r\n            \r\n            return k;\r\n           \r\n        }\r\n \r\n}",
  "sourcePath": "C:\\Users\\mange\\Downloads\\document_search\\contracts\\Document_Search.sol",
  "compiler": {
    "name": "solc",
    "version": "0.5.16+commit.9c3226ce.Emscripten.clang"
  },
  "schemaVersion": "3.4.4",
  "updatedAt": "2022-05-04T06:41:47.421Z",
  "networkType": "ethereum",
  "devdoc": {
    "methods": {}
  },
  "userdoc": {
    "methods": {}
  }
}